:0400000080312728FC
:100008007E14803120007F08F1008B1A0B1D102808
:1000180081310921803122282100911E1A282000CF
:10002800911E1A288031D920803122282100111EE2
:1000380022282000111E22288031722071082000F9
:10004800FF007E10090080312928F701F801F90125
:10005800FA01FB0120308400003085001630813120
:100068005D217E1020008031F4282000B801B901FC
:100078007A08031D3C282100111272082000380755
:1000880084007308393D85000008F4003808203ED4
:1000980086008701740881003908F5003808F400E3
:1000A800B80A0319B90A7208740784007308753D01
:1000B8008500120003196A283908803AF400803054
:1000C8007402083003193802031C41280130F40077
:1000D8007408FA00FB012100111608007A080319B8
:1000E8007C287B08203E860087010108031D8228A2
:1000F80021001112FA0120008E1508007B08203E0D
:1001080086008701010823009A000130F00070087A
:10011800FB0708307B02031898287B08203E8600DE
:1001280087010108031D080021001112FA010800C7
:1001380022008C013F3021008C00173023008C00F6
:1001480024008C0122008D01F03021008D00103038
:1001580023008D0024008D01053022008E00F03030
:1001680021008E00C03023008E0021009517220048
:100178009D010800210091121112483023009F00B0
:1001880080309D0026309E00A0309B0001309C00EE
:10019800FB010930F20072082000B600F901B50130
:1001A800B401A80121009116080023009D1CDE2837
:1001B8001D121D161908F0007908293E86008701CE
:1001C800700881000130F0007008F90708307902E2
:1001D8000318F9010130F00070082000B407080086
:1001E80081313F2180318B170B1720000E148E10A0
:1001F8000E118E11770803190529F7012000013027
:100208008E0681314B218031FE280B1120003708E2
:1002180095000130B1070030B23D00303202323073
:1002280003193102031C080081311E212000B1018D
:10023800B20108000130F0007008F7000130F0004A
:1002480070082000B307330303190800B301013015
:10025800F0007008F800080021001508C0391738A8
:1002680095006430200095006430F2007208B700F1
:100278000B118B16080081316321813180319C205C
:1002880081318031BE2081318131302108007808E8
:10029800031908005630F2008130F300803139200C
:1002A800F8010800743465347334743470342034BD
:1002B8000034640080010131890B5E2900347A30F2
:0802C800210099009A010800D1
:020000040001F9
:04000E00E4FFFFFF0D
:00000001FF
