:040000008031132810
:100008007E14803120007F08F6008B1A0B1D0E2805
:1000180080315A2076082000FF007E1009008031C8
:100028001528F001F101F201F301F4018031BB2040
:10003800F9007E10200080317F2822008C013F309B
:1000480021008C00173023008C0024008C01220032
:100058008D01F03021008D00103023008D00240028
:100068008D01053022008E00F03021008E00C03056
:1000780023008E002100951722009D0108007408B6
:10008800031908002000111E0800790823009A00AF
:100098000130F7007708F9077B307902031C5828EC
:1000A8006130F7007708F900F40108000B117808AF
:1000B800200095000130F0070030F13D003071025A
:1000C800323003197002031C080080316E20F001E1
:1000D800F10108000130F5007508F3000130F50062
:1000E8007508F207720303190800F2010130F500E0
:1000F8007508F400080080319E2080318B170B179B
:10010800730803198B28F301200001308E06803113
:1001180043208031842821001508C03917389500FC
:100128006430200095006430F7007708F8000B1160
:100138008B1608008031B620803180312120803133
:100148008031AA20803180318F2008004830230078
:100158009F0080309D0026309E00A0309B0001301B
:100168009C0008007A30210099009A010800613447
:020000040001F9
:04000E00E4FFFFFF0D
:00000001FF
